:020000040800F2
:1000000000280020990E0008BD0D0008C30D00084F
:10001000C90D0008CF0D0008D50D00080000000034
:10002000000000000000000000000000DB0D0008E0
:10003000E70D000800000000F30D0008FF0D0008A8
:10004000E10E0008E10E0008E10E0008E10E0008D4
:10005000E10E0008E10E0008E10E0008E10E0008C4
:10006000E10E0008E10E0008E10E0008E10E0008B4
:10007000E10E0008E10E0008E10E0008E10E0008A4
:10008000E10E0008E10E0008E10E0008E10E000894
:10009000E10E0008E10E0008E10E0008E10E000884
:1000A000E10E0008E10E0008E10E0008E10E000874
:1000B000E10E00080D0E000800000000E10E00082F
:1000C000E10E00080000000000000000E10E000842
:1000D00000000000E10E0008E10E00080000000032
:1000E000E10E0008E10E0008E10E0008000000002B
:1000F0000000000000000000000000000000000000
:0C01000000000000000000005FF808F1A3
:10010C0010B5054C237833B9044B13B10448AFF345
:10011C0000800123237010BD70000020000000003F
:10012C008041000808B5034B1BB103490348AFF3EA
:10013C00008008BD00000000740000208041000811
:10014C00034613F8012B002AFBD1181A013870470B
:10015C0080F0004002E000BF81F0004142001FBF70
:10016C005FEA410392EA030F7FEA226C7FEA236C79
:10017C006AD04FEA1262D2EB1363C1BFD21841406E
:10018C0048404140B8BF5B42192B88BF704710F004
:10019C00004F40F4000020F07F4018BF404211F0A7
:1001AC00004F41F4000121F07F4118BF494292EA0F
:1001BC00030F3FD0A2F1010241FA03FC10EB0C003B
:1001CC00C3F1200301FA03F100F0004302D54942C8
:1001DC0060EB4000B0F5000F13D3B0F1807F06D375
:1001EC0040084FEA310102F10102FE2A51D2B1F16D
:1001FC00004F40EBC25008BF20F0010040EA030062
:10020C007047490040EB000010F4000FA2F101020E
:10021C00EDD1B0FA80FCACF1080CB2EB0C0200FA98
:10022C000CF0AABF00EBC25052421843BCBFD040E6
:10023C001843704792F0000F81F4000106BF80F460
:10024C0000000132013BB5E74FEA41037FEA226C23
:10025C0018BF7FEA236C21D092EA030F04D092F0EE
:10026C00000F08BF0846704790EA010F1CBF002022
:10027C00704712F07F4F04D1400028BF40F000407F
:10028C00704712F100723CBF00F50000704700F09F
:10029C00004343F0FE4040F4000070477FEA2262C6
:1002AC0016BF08467FEA23630146420206BF5FEA97
:1002BC00412390EA010F40F4800070474FF0000397
:1002CC0004E000BF10F0004348BF40425FEA000C5E
:1002DC0008BF704743F0964301464FF000001CE006
:1002EC0050EA010208BF70474FF000030AE000BF5C
:1002FC0050EA010208BF704711F0004302D540429A
:10030C0061EB41015FEA010C02BF8446014600200B
:10031C0043F0B64308BFA3F18053A3F50003BCFA26
:10032C008CF2083AA3EBC25310DB01FA02FC6344D3
:10033C0000FA02FCC2F12002BCF1004F20FA02F2DA
:10034C0043EB020008BF20F00100704702F12002CD
:10035C0001FA02FCC2F1200250EA4C0021FA02F22E
:10036C0043EB020008BF20EADC7070474FF0FF0C33
:10037C001CEAD0521EBF1CEAD15392EA0C0F93EA2E
:10038C000C0F6FD01A4480EA010C400218BF5FEAD0
:10039C0041211ED04FF0006343EA501043EA511143
:1003AC00A0FB01310CF00040B1F5000F3EBF49003D
:1003BC0041EAD3715B0040EA010062F17F02FD2A41
:1003CC001DD8B3F1004F40EBC25008BF20F0010024
:1003DC00704790F0000F0CF0004C08BF49024CEA3B
:1003EC00502040EA51207F3AC2BFD2F1FF0340EACD
:1003FC00C250704740F400004FF00003013A5DDC3E
:10040C0012F1190FDCBF00F000407047C2F100027E
:10041C00410021FA02F1C2F1200200FA02FC5FEA6B
:10042C00310040F1000053EA4C0308BF20EADC70B5
:10043C00704792F0000F00F0004C02BF400010F427
:10044C00000F013AF9D040EA0C0093F0000F01F0D4
:10045C00004C02BF490011F4000F013BF9D041EAF6
:10046C000C018FE70CEAD15392EA0C0F18BF93EAF8
:10047C000C0F0AD030F0004C18BF31F0004CD8D122
:10048C0080EA010000F00040704790F0000F17BFA9
:10049C0090F0004F084691F0000F91F0004F14D0EF
:1004AC0092EA0C0F01D142020FD193EA0C0F03D147
:1004BC004B0218BF084608D180EA010000F000404A
:1004CC0040F0FE4040F40000704740F0FE4040F425
:1004DC00400070474FF0FF0C1CEAD0521EBF1CEAC4
:1004EC00D15392EA0C0F93EA0C0F69D0A2EB0302E2
:1004FC0080EA010C49024FEA402037D04FF080537C
:10050C0043EA111143EA10130CF000408B4238BF40
:10051C005B0042F17D024FF4000C8B4224BF5B1A4E
:10052C0040EA0C00B3EB510F24BFA3EB510340EA9C
:10053C005C00B3EB910F24BFA3EB910340EA9C004A
:10054C00B3EBD10F24BFA3EBD10340EADC001B01BA
:10055C0018BF5FEA1C1CE0D1FD2A3FF650AF8B425E
:10056C0040EBC25008BF20F0010070470CF0004C6B
:10057C004CEA50207F32C2BFD2F1FF0340EAC25096
:10058C00704740F400004FF00003013A37E792F057
:10059C00000F00F0004C02BF400010F4000F013AB5
:1005AC00F9D040EA0C0093F0000F01F0004C02BFB0
:1005BC00490011F4000F013BF9D041EA0C0195E719
:1005CC000CEAD15392EA0C0F08D142027FF47DAFB2
:1005DC0093EA0C0F7FF470AF084676E793EA0C0FA2
:1005EC0004D14B023FF44CAF08466EE730F0004CA0
:1005FC0018BF31F0004CCAD130F000427FF45CAF30
:10060C0031F000437FF43CAF5FE700BF42000ED2F5
:10061C00B2F1FE4F0BD34FF09E03B3EB126209D431
:10062C004FEA002343F0004323FA02F070474FF0E7
:10063C000000704712F1610F01D1420202D14FF05C
:10064C00FF3070474FF00000704700BF90B593B07B
:10065C0000AF07F158033B6100F03EFC00F0F4F8EA
:10066C0000F048FA00F084F900F044F900F018FAB0
:10067C0000216F4802F038F904216D4802F034F97A
:10068C0008216B4802F030F90C21694802F02CF972
:10069C0003237B87788F0346013B7B6381B24FF04A
:1006AC0000024FF000034FF00004140144EA1174EF
:1006BC000B0181B24FF000024FF000034FF0000429
:1006CC00140144EA11740B0103465B000133073338
:1006DC00DB08DB00ADEB030D6B4601335B085B0005
:1006EC003B630023BB870023FB870023FB85002390
:1006FC00BB6200237B6200233B624FF07E53FB61A5
:10070C004C4BBB614FF000033B640023A7F8463011
:10071C000AE0B7F846203B6B002123F81210B7F81B
:10072C0046300133A7F84630B7F846207B8F9A4203
:10073C00EFD3BA8F3B6B33F81230FA8FD31AFB8797
:10074C003D4800F003FD4FF0FF313B4800F0ACFD9D
:10075C00394800F0A3FE0346FB82BA8F3B6BF98A43
:10076C0023F81210BA8F3B6B33F81220FB8F134413
:10077C00FB87BB8F0133BB87BA8F7B8F9A4201D328
:10078C000023BB87FA8F7B8FB2FBF3F39BB27B62A8
:10079C007B6AA3F23C533B62386AFFF793FD034636
:1007AC00F9691846FFF7E2FD03461C46386AFFF765
:1007BC0089FD0346396C1846FFF7CEFC0346B96930
:1007CC001846FFF7D3FD034619462046FFF7C6FC33
:1007DC0003461846FFF71AFF0346FB85FB8D5B00AB
:1007EC00BB623B1DBA6A1549184603F0B1F83B1DB4
:1007FC001846FFF7A5FC03469AB2391D4FF0FF339C
:10080C000F4802F008FFBB6A40F2E632934208D868
:10081C000C4ABB6A93630B4ABB6AD363094ABB6A33
:10082C001364386AFFF74EFD03463B6481E700BF53
:10083C009800002000004040E00000209841000893
:10084C00100100200004004080B594B000AF07F107
:10085C00280328220021184603F072F807F114032C
:10086C0000221A605A609A60DA601A613B1D0022FD
:10087C001A605A609A60DA600223BB620123BB6380
:10088C001023FB6302237B640023BB640023FB6403
:10089C0007F12803184601F0F1F90346002B01D0AB
:1008AC0000F056F90F237B610223BB610023FB612F
:1008BC004FF480633B6200237B6207F11403002139
:1008CC00184601F05BFC0346002B01D000F040F908
:1008DC0002237B600023FB603B1D184601F0EAFD00
:1008EC000346002B01D000F033F900BF5037BD4652
:1008FC0080BD000080B584B000AF3B1D00221A60A3
:10090C005A609A60184B194A1A60174B00229A6069
:10091C00154B00221A73144B00221A75124B4FF40C
:10092C006022DA61104B00225A600F4B01221A61CF
:10093C000D4800F033FB0346002B01D000F008F902
:10094C0000237B600123BB600023FB603B1D194629
:10095C00054800F0AFFD0346002B01D000F0F8F87D
:10096C0000BF1037BD4680BDE000002000240140D0
:10097C0080B58EB000AF07F1280300221A605A60D0
:10098C009A60DA6007F1200300221A605A603B1D5E
:10099C0000221A605A609A60DA601A615A619A6190
:1009AC003D4B3E4A1A603C4B10225A603A4B002297
:1009BC009A60394B40F2E732DA60374B00221A6109
:1009CC00354B00229A61344801F0E6FE0346002BB9
:1009DC0001D000F0BDF84FF48053BB6207F128033F
:1009EC0019462D4802F0E2F90346002B01D000F025
:1009FC00AFF8294801F01FFF0346002B01D000F08F
:100A0C00A7F800233B6200237B6207F12003194601
:100A1C00214802F049FD0346002B01D000F098F864
:100A2C0060237B600023BB600023FB6000237B61A1
:100A3C003B1D00221946184802F0FAF80346002B19
:100A4C0001D000F085F83B1D04221946124802F033
:100A5C00EFF80346002B01D000F07AF83B1D08227A
:100A6C0019460D4802F0E4F80346002B01D000F0C3
:100A7C006FF83B1D0C221946074802F0D9F80346C3
:100A8C00002B01D000F064F8034800F0F9F800BF27
:100A9C003837BD4680BD00BF9800002000040040E0
:100AAC0080B500AF114B124A1A60104B4FF4E13273
:100ABC005A600E4B00229A600C4B0022DA600B4BF2
:100ACC0000221A61094B0C225A61084B00229A61D0
:100ADC00064B0022DA61054802F050FD0346002B5C
:100AEC0001D000F035F800BF80BD00BF1001002020
:100AFC000038014080B485B000AF144B9B69134A99
:100B0C0043F020039361114B9B6903F02003FB60BE
:100B1C00FB680E4B9B690D4A43F0040393610B4B2E
:100B2C009B6903F00403BB60BB68084B9B69074AD5
:100B3C0043F008039361054B9B6903F008037B604A
:100B4C007B6800BF1437BD4680BC70470010024064
:100B5C0080B400AF72B6FEE780B485B000AF154B21
:100B6C009B69144A43F001039361124B9B6903F098
:100B7C000103BB60BB680F4BDB690E4A43F080532B
:100B8C00D3610C4BDB6903F080537B607B680A4BB1
:100B9C005B68FB60FB6823F0E063FB60FB6843F081
:100BAC000073FB60044AFB68536000BF1437BD46FA
:100BBC0080BC7047001002400000014080B588B036
:100BCC0000AF786007F1100300221A605A609A6037
:100BDC00DA607B681B68144A934221D1134B9B69E2
:100BEC00124A43F400739361104B9B6903F4007336
:100BFC00FB60FB680D4B9B690C4A43F0040393614B
:100C0C000A4B9B6903F00403BB60BB6801233B6187
:100C1C0003237B6107F110031946054800F0DCFE45
:100C2C0000BF2037BD4680BD0024014000100240AB
:100C3C000008014080B584B000AF78607B681B6809
:100C4C000D4A934213D10D4BDB690C4A43F002035E
:100C5C00D3610A4BDB6903F00203FB60FB680022E3
:100C6C0000211D2000F081FE1D2000F09AFE00BF27
:100C7C001037BD4680BD00BF00040040001002408C
:100C8C0080B588B000AF786007F1100300221A60BD
:100C9C005A609A60DA607B681B681B4A93422FD1BA
:100CAC001A4B9B69194A43F004039361174B9B69D8
:100CBC0003F00403FB60FB68144B9B69134A43F07D
:100CCC0008039361114B9B6903F00803BB60BB687D
:100CDC00C0233B6102237B610223FB6107F11003FC
:100CEC0019460B4800F078FE03233B6102237B611D
:100CFC000223FB6107F110031946064800F06CFE55
:100D0C0000BF2037BD4680BD0004004000100240EB
:100D1C0000080140000C014080B588B000AF78603D
:100D2C0007F1100300221A605A609A60DA607B683F
:100D3C001B681C4A934231D11B4B9B691A4A43F4E2
:100D4C0080439361184B9B6903F48043FB60FB6801
:100D5C00154B9B69144A43F004039361124B9B6936
:100D6C0003F00403BB60BB684FF400733B610223C8
:100D7C007B610323FB6107F1100319460B4800F05C
:100D8C002BFE4FF480633B6100237B610023BB612E
:100D9C0007F110031946054800F01EFE00BF20376E
:100DAC00BD4680BD003801400010024000080140E3
:100DBC0080B400AFFEE780B400AFFEE780B400AFB4
:100DCC00FEE780B400AFFEE780B400AFFEE780B46E
:100DDC0000AF00BFBD4680BC704780B400AF00BF01
:100DEC00BD4680BC704780B400AF00BFBD4680BC20
:100DFC00704780B500AF00F0B5F800BF80BD0000B3
:100E0C0080B500AF024801F00BFE00BF80BD00BFF3
:100E1C009800002080B586B000AF7860144A154B5E
:100E2C00D31A7B617B693B61134B1B68002B02D18E
:100E3C00114B124A1A60104B1A687B6813443A69BA
:100E4C009A4207D202F052FD02460C2313604FF077
:100E5C00FF3309E0084B1B68FB60074B1A687B6883
:100E6C001344054A1360FB6818461837BD4680BD0D
:100E7C0000280020000400008C00002058010020F5
:100E8C0080B400AF00BFBD4680BC7047002103E0BA
:100E9C000B4B5B58435004310A480B4B42189A4297
:100EAC00F6D30A4A02E0002342F8043B084B9A426C
:100EBC00F9D3FFF7E5FF02F01FFDFFF7C7FB704703
:100ECC002842000800000020700000207000002064
:100EDC0058010020FEE7000080B500AF084B1B68EE
:100EEC00074A43F010031360032000F033FD002089
:100EFC0000F008F8FFF730FE0023184680BD00BF55
:100F0C000020024080B582B000AF7860124B1A68A6
:100F1C00124B1B7819464FF47A73B3FBF1F3B2FB07
:100F2C00F3F3184600F04BFD0346002B01D00123D0
:100F3C000EE07B680F2B0AD8002279684FF0FF3047
:100F4C0000F013FD064A7B681360002300E00123C8
:100F5C0018460837BD4680BD000000200800002060
:100F6C000400002080B400AF054B1B781A46054BDB
:100F7C001B681344034A136000BFBD4680BC704716
:100F8C00080000205001002080B400AF024B1B6809
:100F9C001846BD4680BC70475001002080B586B015
:100FAC0000AF78600023FB7500233B610023BB601E
:100FBC000023FB607B68002B01D10123BEE07B6822
:100FCC009B68002B7B689B6A002B09D17B680022F5
:100FDC00DA627B68002283F824207868FFF7EEFD44
:100FEC00786800F0B1FB0346FB757B689B6A03F0E5
:100FFC001003002B40F09980FB7D002B40F0958076
:10100C007B689B6A23F4885323F0020343F00202AB
:10101C007B689A627B685A687B68DB691A437B68D9
:10102C001B7B5B001343BA681343BB607B689B68F4
:10103C00B3F5807F03D07B689B68012B02D14FF402
:10104C00807300E000233A6913433B617B681B7D8E
:10105C00012B19D17B681B7B002B09D17B689B6909
:10106C00013B5A033B69134343F400633B610BE0C0
:10107C007B689B6A43F020027B689A627B68DB6A20
:10108C0043F001027B68DA627B681B685B6823F4BF
:10109C0069417B681B683A690A435A607B681B6824
:1010AC009A68284B13407A681268B9680B439360AE
:1010BC007B689B68B3F5807F03D07B689B68012BB2
:1010CC0004D17B681B69013B1B05FB607B681B68BB
:1010DC00DB6A23F470017B681B68FA680A43DA62E6
:1010EC007B681B689A68184B1340BA689A420BD1FC
:1010FC007B680022DA627B689B6A23F0030343F06F
:10110C0001027B689A6218E07B689B6A23F01203E9
:10111C0043F010027B689A627B68DB6A43F0010241
:10112C007B68DA620123FB7507E07B689B6A43F0FE
:10113C0010027B689A620123FB75FB7D18461837F9
:10114C00BD4680BDFDF7E1FFFE0E1FFF80B584B0EC
:10115C0000AF78600023FB737B6893F82430012B7D
:10116C0001D1022398E07B68012283F8242078685F
:10117C0000F098FA0346FB73FB7B002B40F0878052
:10118C007B689B6A23F4407323F0010343F4807261
:10119C007B689A627B681B68414A934205D1414B3C
:1011AC005B6803F47023002B15D17B689B6A23F4D6
:1011BC0080127B689A627B681B685B6803F48063AF
:1011CC00002B26D07B689B6A23F4405343F4805257
:1011DC007B689A621DE07B689B6A43F480127B6893
:1011EC009A627B681B682F4A934204D07B681B6809
:1011FC002B4A93420DD12B4B5B6803F48063002B7D
:10120C0007D07B689B6A23F4405343F480527B687D
:10121C009A627B689B6A03F48053002B06D07B6830
:10122C00DB6A23F006027B68DA6202E07B6800224C
:10123C00DA627B68002283F824207B681B686FF0DD
:10124C0002021A607B681B689B6803F46023B3F589
:10125C00602F13D17B681B68114A934205D1114B47
:10126C005B6803F47023002B08D17B681B689A68B9
:10127C007B681B6842F4A0029A600CE07B681B68D8
:10128C009A687B681B6842F480129A6003E07B6862
:10129C00002283F82420FB7B18461037BD4680BD06
:1012AC00002801400024014090B587B000AF786061
:1012BC00396000237B610023FB6000233B61FFF757
:1012CC0063FE78617B681B689B6803F48073002B5A
:1012DC000BD07B689B6A43F020027B689A627B6828
:1012EC00002283F824200123C8E07B681B685B681C
:1012FC0003F48073002B2AD17B681B68DB6A03F430
:10130C007003002B23D11AE03B68B3F1FF3F16D0DA
:10131C003B68002B07D0FFF737FE02467B69D31AD8
:10132C003A689A420BD27B689B6A43F004027B6852
:10133C009A627B68002283F8242003239EE07B685A
:10134C001B681B6803F00203002BDDD06CE04D4BD7
:10135C001C68022001F064F90346B4FBF3F27B68CD
:10136C001B681969484B0B40002B18D17B681B6814
:10137C00D968464B0B40002B11D17B681B6819694F
:10138C00434B0B40002B08D17B681B68D968414B41
:10139C000B40002B01D1142320E029231EE07B6895
:1013AC001B6819693A4B0B40002B06D17B681B68F4
:1013BC00D968384B0B40002B0DD07B681B68196922
:1013CC00354B0B40002B08D17B681B68D968324B1E
:1013DC000B40002B01D1542300E0FC2302FB03F350
:1013EC003B611DE03B68B3F1FF3F16D03B68002B1F
:1013FC0007D0FFF7C9FD02467B69D31A3A689A42B7
:10140C000BD27B689B6A43F004027B689A627B6810
:10141C00002283F82420032330E0FB680133FB60B7
:10142C00FB683A699A42DDD87B681B686FF0120240
:10143C001A607B689B6A43F400727B689A627B68D3
:10144C001B689B6803F46023B3F5602F15D17B6890
:10145C001B7B002B11D17B689B6A23F480727B6809
:10146C009A627B689B6A03F48053002B05D17B68DE
:10147C009B6A43F001027B689A62002318461C3772
:10148C00BD4690BD000000202449922424499200BE
:10149C0092244912922449004992240080B483B0CA
:1014AC0000AF78607B681B68DB6C18460C37BD4658
:1014BC0080BC704780B485B000AF78603960002381
:1014CC00FB730023BB607B6893F82430012B01D1A4
:1014DC000223DCE07B68012283F824203B685B68F4
:1014EC00062B1CD87B681B68596B3B685A681346E3
:1014FC009B001344053B1F2202FA03F3DB43194004
:10150C003B6818683B685A6813469B001344053BBC
:10151C0000FA03F27B681B680A435A633CE03B68A1
:10152C005B680C2B1CD87B681B68196B3B685A6872
:10153C0013469B001344233B1F2202FA03F3DB43A5
:10154C0019403B6818683B685A6813469B00134463
:10155C00233B00FA03F27B681B680A431A631BE007
:10156C007B681B68D96A3B685A6813469B00134416
:10157C00413B1F2202FA03F3DB4319403B68186816
:10158C003B685A6813469B001344413B00FA03F234
:10159C007B681B680A43DA623B681B68092B1CD901
:1015AC007B681B68D9683B681A6813465B00134458
:1015BC001E3B072202FA03F3DB4319403B68986891
:1015CC003B681A6813465B0013441E3B00FA03F297
:1015DC007B681B680A43DA6019E07B681B68196931
:1015EC003B681A6813465B001344072202FA03F3A4
:1015FC00DB4319403B6898683B681A6813465B00EC
:10160C00134400FA03F27B681B680A431A613B68B7
:10161C001B68102B03D03B681B68112B32D17B68E5
:10162C001B681D4A934225D17B681B689B6803F499
:10163C000003002B26D17B681B689A687B681B68AB
:10164C0042F400029A603B681B68102B1AD1134BB2
:10165C001B68134AA2FB03239A0C13469B001344EA
:10166C005B00BB6002E0BB68013BBB60BB68002B4E
:10167C00F9D107E07B689B6A43F020027B689A6291
:10168C000123FB737B68002283F82420FB7B184624
:10169C001437BD4680BC7047002401400000002078
:1016AC0083DE1B4380B584B000AF78600023FB6001
:1016BC000023BB607B681B689B6803F00103012B54
:1016CC0039D07B681B689A687B681B6842F0010202
:1016DC009A601B4B1B681B4AA2FB03239B0CBB6031
:1016EC0002E0BB68013BBB60BB68002BF9D1FFF784
:1016FC004BFCF86018E0FFF747FC0246FB68D31A76
:10170C00022B11D97B689B6A43F010027B689A62AA
:10171C007B68DB6A43F001027B68DA627B6800223B
:10172C0083F82420012307E07B681B689B6803F087
:10173C000103012BDFD1002318461037BD4680BDB5
:10174C000000002083DE1B4380B584B000AF7860BE
:10175C000023FB607B681B689B6803F00103012B73
:10176C0027D17B681B689A687B681B6822F0010292
:10177C009A60FFF709FCF86014E0FFF705FC0246DD
:10178C00FB68D31A022B0DD97B689B6A43F01002BD
:10179C007B689A627B68DB6A43F001027B68DA62E1
:1017AC00012307E07B681B689B6803F00103012B96
:1017BC00E3D0002318461037BD4680BD80B485B0F9
:1017CC0000AF78607B6803F00703FB600C4BDB68B1
:1017DC00BB60BA684FF6FF031340BB60FB681A028C
:1017EC00BB68134343F0BF6343F40033BB60044A4C
:1017FC00BB68D36000BF1437BD4680BC704700BFC8
:10180C0000ED00E080B400AF044BDB681B0A03F072
:10181C0007031846BD4680BC704700BF00ED00E0D2
:10182C0080B483B000AF0346FB7197F90730002BEF
:10183C000BDBFB7903F01F02064997F907305B09B4
:10184C00012000FA02F241F8232000BF0C37BD46FC
:10185C0080BC704700E100E080B483B000AF034669
:10186C003960FB7197F90730002B0ADB3B68DAB261
:10187C000C4997F907301201D2B20B4483F80023BC
:10188C000AE03B68DAB20849FB7903F00F03043B2A
:10189C001201D2B20B441A7600BF0C37BD4680BC85
:1018AC00704700BF00E100E000ED00E080B489B0BB
:1018BC0000AFF860B9607A60FB6803F00703FB6166
:1018CC00FB69C3F10703042B28BF0423BB61FB692D
:1018DC000433062B02D9FB69033B00E000237B6138
:1018EC004FF0FF32BB6902FA03F3DA43BB681A40CC
:1018FC007B699A404FF0FF317B6901FA03F3D943BE
:10190C007B680B40134318462437BD4680BC704798
:10191C0080B582B000AF78607B68013BB3F1807F0B
:10192C0001D301230FE00A4A7B68013B53600F216E
:10193C004FF0FF30FFF790FF054B00229A60044BED
:10194C0007221A60002318460837BD4680BD00BF29
:10195C0010E000E080B582B000AF78607868FFF7E7
:10196C002DFF00BF0837BD4680BD80B586B000AFE7
:10197C000346B9607A60FB7300237B61FFF742FF7B
:10198C0078617A68B9687869FFF790FF024697F931
:10199C000F3011461846FFF75FFF00BF1837BD46E2
:1019AC0080BD80B582B000AF0346FB7197F907305C
:1019BC001846FFF735FF00BF0837BD4680BD80B520
:1019CC0082B000AF78607868FFF7A2FF0346184634
:1019DC000837BD4680BD000080B48BB000AF786086
:1019EC00396000237B6200233B6221E101227B6A88
:1019FC0002FA03F3FB613B681B68FA691340BB6195
:101A0C00BA69FB699A4240F010813B685B68122B03
:101A1C0034D0122B0DD8022B2BD0022B04D8002B38
:101A2C0031D0012B1CD048E0032B43D0112B1BD001
:101A3C0043E0864A934226D0844A934206D8844A8D
:101A4C00934220D0834A93421DD036E0824A93427F
:101A5C0019D0824A934216D0814A934213D02CE07B
:101A6C003B68DB683B6228E03B68DB6804333B6225
:101A7C0023E03B68DB6808333B621EE03B68DB68B5
:101A8C000C333B6219E03B689B68002B02D10423AA
:101A9C003B6212E03B689B68012B05D108233B623B
:101AAC007B68FA691A6108E008233B627B68FA6973
:101ABC005A6102E000233B6200BFBB69FF2B01D8D7
:101ACC007B6801E07B6804337B61BB69FF2B02D828
:101ADC007B6A9B0002E07B6A083B9B003B617B6955
:101AEC001A680F213B6901FA03F3DB431A40396A88
:101AFC003B6901FA03F31A437B691A603B685B6824
:101B0C0003F08053002B00F09080564B9B69554A94
:101B1C0043F001039361534B9B6903F00103BB60DA
:101B2C00BB68514A7B6A9B08023352F82330FB6036
:101B3C007B6A03F003039B000F2202FA03F3DB43DF
:101B4C00FA681340FB607B68484A93420DD07B686F
:101B5C00474A934207D07B68464A934201D10223FD
:101B6C0004E0032302E0012300E000237A6A02F080
:101B7C00030292009340FA681343FB603A497B6A74
:101B8C009B080233FA6841F823203B685B6803F436
:101B9C008033002B06D0384B1A683749BB69134386
:101BAC000B6006E0344B1A68BB69DB4332491340C7
:101BBC000B603B685B6803F40033002B06D02E4BA4
:101BCC005A682D49BB6913434B6006E02A4B5A688F
:101BDC00BB69DB43284913404B603B685B6803F4EB
:101BEC008013002B06D0244B9A682349BB691343FE
:101BFC008B6006E0204B9A68BB69DB431E4913409F
:101C0C008B603B685B6803F40013002B06D01A4B07
:101C1C00DA681949BB691343CB6006E0164BDA68E6
:101C2C00BB69DB4314491340CB607B6A01337B6295
:101C3C003B681A687B6A22FA03F3002B7FF4D6AE5A
:101C4C0000BF2C37BD4680BC704700BF0000211080
:101C5C0000001110000012100000311000003210B2
:101C6C00000022100010024000000140000801405A
:101C7C00000C0140001001400004014080B586B00A
:101C8C0000AF78607B68002B01D101236CE27B688C
:101C9C001B6803F00103002B00F08780924B5B68FC
:101CAC0003F00C03042B0CD08F4B5B6803F00C037C
:101CBC00082B12D18C4B5B6803F48033B3F5803F57
:101CCC000BD1894B1B6803F40033002B6CD07B6861
:101CDC005B68002B68D1012346E27B685B68B3F537
:101CEC00803F06D1804B1B687F4A43F480331360DE
:101CFC002EE07B685B68002B0CD17B4B1B687A4A0F
:101D0C0023F480331360784B1B68774A23F48023C9
:101D1C0013601DE07B685B68B3F5A02F0CD1724B90
:101D2C001B68714A43F4802313606F4B1B686E4A27
:101D3C0043F4803313600BE06B4B1B686A4A23F44B
:101D4C0080331360684B1B68674A23F4802313604D
:101D5C007B685B68002B13D0FFF716F9386108E03D
:101D6C00FFF712F902463B69D31A642B01D90323FE
:101D7C00FAE15D4B1B6803F40033002BF0D014E048
:101D8C00FFF702F9386108E0FFF7FEF802463B69FD
:101D9C00D31A642B01D90323E6E1534B1B6803F4DC
:101DAC000033002BF0D100E000BF7B681B6803F010
:101DBC000203002B63D04C4B5B6803F00C03002B2D
:101DCC000BD0494B5B6803F00C03082B1CD1464B22
:101DDC005B6803F48033002B16D1434B1B6803F074
:101DEC000203002B05D07B681B69012B01D001235A
:101DFC00BAE13D4B1B6823F0F8027B685B69DB00A2
:101E0C00394913430B603AE07B681B69002B20D0E7
:101E1C00364B01221A60FFF7B7F8386108E0FFF77C
:101E2C00B3F802463B69D31A022B01D903239BE179
:101E3C002D4B1B6803F00203002BF0D02A4B1B68C0
:101E4C0023F0F8027B685B69DB00274913430B60C6
:101E5C0015E0264B00221A60FFF796F8386108E06F
:101E6C00FFF792F802463B69D31A022B01D90323E0
:101E7C007AE11D4B1B6803F00203002BF0D17B6849
:101E8C001B6803F00803002B3AD07B689B69002B7E
:101E9C0019D0174B01221A60FFF776F8386108E069
:101EAC00FFF772F802463B69D31A022B01D90323C0
:101EBC005AE10D4B5B6A03F00203002BF0D00120BA
:101ECC0000F0DAFA1CE00A4B00221A60FFF75CF80B
:101EDC0038610FE0FFF758F802463B69D31A022B22
:101EEC0008D9032340E100BF001002400000424229
:101EFC00800442429E4B5B6A03F00203002BE9D143
:101F0C007B681B6803F00403002B00F0A680002301
:101F1C00FB75974BDB6903F08053002B0DD1944B71
:101F2C00DB69934A43F08053D361914BDB6903F037
:101F3C008053BB60BB680123FB758E4B1B6803F49D
:101F4C008073002B18D18B4B1B688A4A43F4807327
:101F5C001360FFF719F8386108E0FFF715F802462F
:101F6C003B69D31A642B01D90323FDE0814B1B6819
:101F7C0003F48073002BF0D07B68DB68012B06D157
:101F8C007B4B1B6A7A4A43F0010313622DE07B689A
:101F9C00DB68002B0CD1764B1B6A754A23F00103CE
:101FAC001362734B1B6A724A23F0040313621CE026
:101FBC007B68DB68052B0CD16D4B1B6A6C4A43F0BC
:101FCC00040313626A4B1B6A694A43F001031362F0
:101FDC000BE0674B1B6A664A23F001031362644BE8
:101FEC001B6A634A23F0040313627B68DB68002BD3
:101FFC0015D0FEF7C9FF38610AE0FEF7C5FF0246AF
:10200C003B69D31A41F28832934201D90323ABE0E6
:10201C00574B1B6A03F00203002BEED014E0FEF7C3
:10202C00B3FF38610AE0FEF7AFFF02463B69D31AF3
:10203C0041F28832934201D9032395E04C4B1B6A41
:10204C0003F00203002BEED1FB7D012B05D1484B95
:10205C00DB69474A23F08053D3617B68DB69002B33
:10206C0000F08180424B5B6803F00C03082B61D0BD
:10207C007B68DB69022B46D13F4B00221A60FEF7CE
:10208C0083FF386108E0FEF77FFF02463B69D31AF5
:10209C00022B01D9032367E0354B1B6803F0007357
:1020AC00002BF0D17B681B6AB3F5803F08D1304B15
:1020BC005B6823F400327B689B682D4913434B60AB
:1020CC002B4B5B6823F474127B68196A7B685B6A20
:1020DC000B43274913434B60274B01221A60FEF731
:1020EC0053FF386108E0FEF74FFF02463B69D31AF5
:1020FC00022B01D9032337E01D4B1B6803F000733F
:10210C00002BF0D02FE01C4B00221A60FEF73CFF96
:10211C00386108E0FEF738FF02463B69D31A022B00
:10212C0001D9032320E0124B1B6803F00073002B32
:10213C00F0D118E07B68DB69012B01D1012313E09E
:10214C000B4B5B68FB60FB6803F480327B681B6A9B
:10215C009A4206D1FB6803F470127B685B6A9A4260
:10216C0001D0012300E0002318461837BD4680BD7E
:10217C0000100240007000406000424280B584B004
:10218C0000AF786039607B68002B01D10123D0E06F
:10219C006A4B1B6803F007033A689A4210D9674BE5
:1021AC001B6823F0070265493B6813430B60634BC4
:1021BC001B6803F007033A689A4201D00123B8E088
:1021CC007B681B6803F00203002B20D07B681B6824
:1021DC0003F00403002B05D0594B5B68584A43F4B9
:1021EC00E06353607B681B6803F00803002B05D089
:1021FC00534B5B68524A43F460535360504B5B68DB
:10220C0023F0F0027B689B684D4913434B607B685D
:10221C001B6803F00103002B40D07B685B68012B2B
:10222C0007D1474B1B6803F40033002B15D1012356
:10223C007FE07B685B68022B07D1414B1B6803F086
:10224C000073002B09D1012373E03D4B1B6803F095
:10225C000203002B01D101236BE0394B5B6823F0A7
:10226C0003027B685B68364913434B60FEF78CFEB8
:10227C00F8600AE0FEF788FE0246FB68D31A41F2CA
:10228C008832934201D9032353E02D4B5B6803F052
:10229C000C027B685B689B009A42EBD1274B1B6856
:1022AC0003F007033A689A4210D2244B1B6823F0C0
:1022BC00070222493B6813430B60204B1B6803F059
:1022CC0007033A689A4201D0012332E07B681B680D
:1022DC0003F00403002B08D0194B5B6823F4E06275
:1022EC007B68DB68164913434B607B681B6803F003
:1022FC000803002B09D0124B5B6823F460527B68F7
:10230C001B69DB000E4913434B6000F021F80146BA
:10231C000B4B5B681B0903F00F030A4AD35C21FAD1
:10232C0003F3094A1360094B1B681846FEF7EAFDD4
:10233C00002318461037BD4680BD00BF0020024068
:10234C0000100240D44100080000002004000020CE
:10235C0090B48AB000AF2A4B3C1D0FCB84E80F0021
:10236C00284B1B883B800023FB610023BB610023AF
:10237C007B6200237B6100233B62234B5B68FB6128
:10238C00FB6903F00C03042B02D0082B03D02DE0C7
:10239C001E4B3B622DE0FB699B0C03F00F0307F116
:1023AC002802134413F8243C7B61FB6903F480334B
:1023BC00002B13D0144B5B685B0C03F0010307F18B
:1023CC002802134413F8283CBB617B690F4A02FBBB
:1023DC0003F2BB69B2FBF3F37B6204E07B690C4A4A
:1023EC0002FB03F37B627B6A3B6202E0074B3B62BE
:1023FC0000BF3B6A18462837BD4690BC704700BFEB
:10240C00AC410008BC4100080010024000127A00E8
:10241C0000093D0080B400AF024B1B681846BD4656
:10242C0080BC70470000002080B500AFFFF7F2FFC2
:10243C000146054B5B681B0A03F00703034AD35C98
:10244C0021FA03F3184680BD00100240E441000855
:10245C0080B500AFFFF7DEFF0146054B5B68DB0A7A
:10246C0003F00703034AD35C21FA03F3184680BD3B
:10247C0000100240E441000880B485B000AF7860E1
:10248C000A4B1B680A4AA2FB03235B0A7A6802FB0D
:10249C0003F3FB6000BFFB685A1EFA60002BF9D1F6
:1024AC0000BF1437BD4680BC704700BF0000002041
:1024BC00D34D621080B586B000AF786000233B61CD
:1024CC000023FB607B681B6803F00103002B7DD0AD
:1024DC000023FB754F4BDB6903F08053002B0DD1B0
:1024EC004C4BDB694B4A43F08053D361494BDB695E
:1024FC0003F08053BB60BB680123FB75464B1B6824
:10250C0003F48073002B18D1434B1B68424A43F4ED
:10251C0080731360FEF738FD386108E0FEF734FD78
:10252C0002463B69D31A642B01D903236DE03A4B65
:10253C001B6803F48073002BF0D0364B1B6A03F43A
:10254C004073FB60FB68002B2ED07B685B6803F448
:10255C004073FA689A4227D02E4B1B6A23F44073BF
:10256C00FB602E4B01221A602C4B00221A60294A68
:10257C00FB681362FB6803F00103002B14D0FEF719
:10258C0003FD38610AE0FEF7FFFC02463B69D31AF3
:10259C0041F28832934201D9032336E01D4B1B6A6A
:1025AC0003F00203002BEED01A4B1B6A23F440728B
:1025BC007B685B68174913430B62FB7D012B05D1CC
:1025CC00144BDB69134A23F08053D3617B681B687F
:1025DC0003F00203002B08D00E4B5B6823F440423F
:1025EC007B689B680B4913434B607B681B6803F04B
:1025FC001003002B08D0074B5B6823F480027B6828
:10260C00DB68044913434B60002318461837BD465A
:10261C0080BD00BF001002400070004040044242E8
:10262C0090B58DB000AF7860554B07F10C040FCB13
:10263C0084E80F00534B1B883B8100237B620023F3
:10264C00FB6200233B620023FB610023BB627B68BF
:10265C00022B7FD0102B02D0012B48D08BE04A4BA1
:10266C005B68FB61484B1B6803F08073002B7FD0C9
:10267C00FB699B0C03F00F0307F13002134413F8B2
:10268C00243C3B62FB6903F48033002B18D03E4B97
:10269C005B685B0C03F0010307F13002134413F881
:1026AC00283C7B62FB6903F48033002B0DD0374A46
:1026BC007B6AB2FBF3F23B6A02FB03F3FB6204E0BE
:1026CC003B6A334A02FB03F3FB622F4B5B6803F458
:1026DC008003B3F5800F02D1FB6ABB6248E0FB6A52
:1026EC005B002C4AA2FB03235B08BB6240E0264B39
:1026FC001B6AFB61FB6903F44073B3F5807F08D15F
:10270C00FB6903F00203002B03D04FF40043BB62C0
:10271C001FE0FB6903F44073B3F5007F09D11A4B3A
:10272C005B6A03F00203002B03D049F64043BB6203
:10273C000FE0FB6903F44073B3F5407F1AD1124BE1
:10274C001B6803F40033002B14D04FF22443BB62FC
:10275C0010E00FE0FFF77CFE02460B4B5B689B0B17
:10276C0003F0030301335B00B2FBF3F3BB6202E043
:10277C0000BF00E000BFBB6A18463437BD4690BDB1
:10278C00C0410008D04100080010024000127A003D
:10279C0000093D00ABAAAAAA80B582B000AF786050
:1027AC007B68002B01D1012341E07B6893F83D301D
:1027BC00DBB2002B06D17B68002283F83C207868C2
:1027CC00FEF738FA7B68022283F83D207B681A6892
:1027DC007B6804331946104600F0CCFB7B68012261
:1027EC0083F846207B68012283F83E207B68012217
:1027FC0083F83F207B68012283F840207B6801220C
:10280C0083F841207B68012283F842207B680122F7
:10281C0083F843207B68012283F844207B680122E3
:10282C0083F845207B68012283F83D20002318465D
:10283C000837BD4680BD80B582B000AF78607B683C
:10284C00002B01D1012341E07B6893F83D30DBB2D2
:10285C00002B06D17B68002283F83C20786800F0BE
:10286C0039F87B68022283F83D207B681A687B6804
:10287C0004331946104600F07DFB7B68012283F877
:10288C0046207B68012283F83E207B68012283F876
:10289C003F207B68012283F840207B68012283F86B
:1028AC0041207B68012283F842207B68012283F857
:1028BC0043207B68012283F844207B68012283F843
:1028CC0045207B68012283F83D20002318460837F9
:1028DC00BD4680BD80B483B000AF786000BF0C37BC
:1028EC00BD4680BC7047000080B584B000AF7860F6
:1028FC0039603B68002B09D17B6893F83E30DBB222
:10290C00012B14BF01230023DBB222E03B68042B14
:10291C0009D17B6893F83F30DBB2012B14BF012344
:10292C000023DBB215E03B68082B09D17B6893F8D8
:10293C004030DBB2012B14BF01230023DBB208E0D3
:10294C007B6893F84130DBB2012B14BF01230023C9
:10295C00DBB2002B01D0012359E03B68002B04D1E2
:10296C007B68022283F83E2013E03B68042B04D1E1
:10297C007B68022283F83F200BE03B68082B04D1D4
:10298C007B68022283F8402003E07B68022283F8F4
:10299C0041207B681B6801223968184600F060FDF5
:1029AC007B681B681C4A934207D17B681B685A6C76
:1029BC007B681B6842F400425A647B681B68164AA9
:1029CC00934209D07B681B68B3F1804F04D07B68BD
:1029DC001B68124A934211D17B681B689B6803F0F9
:1029EC000703FB60FB68062B10D07B681B681A681A
:1029FC007B681B6842F001021A6007E07B681B6869
:102A0C001A687B681B6842F001021A6000231846A2
:102A1C001037BD4680BD00BF002C014000040040B3
:102A2C0080B582B000AF78607B681B681B6903F0CF
:102A3C000203022B22D17B681B68DB6803F00203C4
:102A4C00022B1BD17B681B686FF002021A617B683A
:102A5C0001221A777B681B689B6903F00303002B28
:102A6C0003D0786800F06BFA05E0786800F05EFA45
:102A7C00786800F06DFA7B6800221A777B681B6817
:102A8C001B6903F00403042B22D17B681B68DB68F1
:102A9C0003F00403042B1BD17B681B686FF004024A
:102AAC001A617B6802221A777B681B689B6903F4A6
:102ABC004073002B03D0786800F041FA05E0786889
:102ACC0000F034FA786800F043FA7B6800221A7739
:102ADC007B681B681B6903F00803082B22D17B68F9
:102AEC001B68DB6803F00803082B1BD17B681B6891
:102AFC006FF008021A617B6804221A777B681B68E6
:102B0C00DB6903F00303002B03D0786800F017FA9D
:102B1C0005E0786800F00AFA786800F019FA7B682A
:102B2C0000221A777B681B681B6903F01003102BBB
:102B3C0022D17B681B68DB6803F01003102B1BD1C0
:102B4C007B681B686FF010021A617B6808221A7789
:102B5C007B681B68DB6903F44073002B03D0786837
:102B6C0000F0EDF905E0786800F0E0F9786800F025
:102B7C00EFF97B6800221A777B681B681B6903F0EE
:102B8C000103012B0ED17B681B68DB6803F001038A
:102B9C00012B07D17B681B686FF001021A61786802
:102BAC0000F0BBF97B681B681B6903F08003802B6A
:102BBC000ED17B681B68DB6803F08003802B07D188
:102BCC007B681B686FF080021A61786800F0CDFC9E
:102BDC007B681B681B6903F04003402B0ED17B689C
:102BEC001B68DB6803F04003402B07D17B681B6834
:102BFC006FF040021A61786800F0B3F97B681B68CB
:102C0C001B6903F02003202B0ED17B681B68DB684B
:102C1C0003F02003202B07D17B681B686FF0200288
:102C2C001A61786800F098FC00BF0837BD4680BD7B
:102C3C0080B584B000AFF860B9607A60FB6893F837
:102C4C003C30012B01D10223ACE0FB68012283F85C
:102C5C003C207B680C2B00F29F8001A252F823F0E1
:102C6C00A12C0008A52D0008A52D0008A52D0008F5
:102C7C00E12C0008A52D0008A52D0008A52D0008A5
:102C8C00232D0008A52D0008A52D0008A52D000852
:102C9C00632D0008FB681B68B968184600F0C2F980
:102CAC00FB681B689A69FB681B6842F008029A6112
:102CBC00FB681B689A69FB681B6822F004029A6126
:102CCC00FB681B689969BB681A69FB681B680A4337
:102CDC009A6162E0FB681B68B968184600F008FA54
:102CEC00FB681B689A69FB681B6842F400629A6176
:102CFC00FB681B689A69FB681B6822F480629A6106
:102D0C00FB681B689969BB681B691A02FB681B6826
:102D1C000A439A6141E0FB681B68B968184600F0E9
:102D2C0051FAFB681B68DA69FB681B6842F0080201
:102D3C00DA61FB681B68DA69FB681B6822F0040225
:102D4C00DA61FB681B68D969BB681A69FB681B6888
:102D5C000A43DA6121E0FB681B68B968184600F089
:102D6C009BFAFB681B68DA69FB681B6842F400621B
:102D7C00DA61FB681B68DA69FB681B6822F4806205
:102D8C00DA61FB681B68D969BB681B691A02FB68AE
:102D9C001B680A43DA6100E000BFFB68002283F87D
:102DAC003C20002318461037BD4680BD80B584B04A
:102DBC0000AF786039607B6893F83C30012B01D10F
:102DCC000223A6E07B68012283F83C207B68022268
:102DDC0083F83D207B681B689B68FB60FB6823F0D5
:102DEC007703FB60FB6823F47F43FB607B681B6805
:102DFC00FA689A603B681B68402B67D0402B0BD855
:102E0C00102B73D0102B02D8002B6FD078E0202B16
:102E1C006CD0302B6AD073E0702B0DD0702B04D893
:102E2C00502B33D0602B41D06AE0B3F5805F66D075
:102E3C00B3F5005F17D063E07B6818683B6899684E
:102E4C003B685A683B68DB6800F0EBFA7B681B68F0
:102E5C009B68FB60FB6843F07703FB607B681B6837
:102E6C00FA689A604CE07B6818683B6899683B6824
:102E7C005A683B68DB6800F0D4FA7B681B689A6878
:102E8C007B681B6842F480429A6039E07B68186862
:102E9C003B6859683B68DB681A4600F04BFA7B6864
:102EAC001B685021184600F0A2FA29E07B681868CC
:102EBC003B6859683B68DB681A4600F069FA7B6826
:102ECC001B686021184600F092FA19E07B681868BC
:102EDC003B6859683B68DB681A4600F02BFA7B6844
:102EEC001B684021184600F082FA09E07B681A68DA
:102EFC003B681B681946104600F079FA00E000BFE9
:102F0C007B68012283F83D207B68002283F83C20FB
:102F1C00002318461037BD4680BD80B483B000AF87
:102F2C00786000BF0C37BD4680BC704780B483B05E
:102F3C0000AF786000BF0C37BD4680BC704780B4D2
:102F4C0083B000AF786000BF0C37BD4680BC7047C3
:102F5C0080B483B000AF786000BF0C37BD4680BC36
:102F6C00704780B483B000AF786000BF0C37BD46AB
:102F7C0080BC704780B485B000AF786039607B68E6
:102F8C001B68FB607B68254A934207D07B68B3F1D2
:102F9C00804F03D07B68224A934208D1FB6823F010
:102FAC007003FB603B685B68FA681343FB607B68EB
:102FBC001A4A934207D07B68B3F1804F03D07B68E9
:102FCC00174A934208D1FB6823F44073FB603B68BB
:102FDC00DB68FA681343FB60FB6823F080023B68F4
:102FEC005B691343FB607B68FA681A603B689A68FC
:102FFC007B68DA623B681A687B689A627B68074A6E
:10300C00934203D13B681A697B681A637B6801227F
:10301C005A6100BF1437BD4680BC7047002C01407C
:10302C000004004080B487B000AF786039607B68E2
:10303C001B6A23F001027B681A627B681B6A7B6146
:10304C007B685B683B617B689B69FB60FB6823F07A
:10305C007003FB60FB6823F00303FB603B681B6899
:10306C00FA681343FB607B6923F002037B613B68C6
:10307C009B687A6913437B617B681C4A93420CD131
:10308C007B6923F008037B613B68DB687A69134337
:10309C007B617B6923F004037B617B68134A934259
:1030AC0011D13B6923F480733B613B6923F40073BA
:1030BC003B613B685B693A6913433B613B689B69C5
:1030CC003A6913433B617B683A695A607B68FA68DA
:1030DC009A613B685A687B685A637B687A691A62A2
:1030EC0000BF1C37BD4680BC704700BF002C0140A0
:1030FC0080B487B000AF786039607B681B6A23F0BE
:10310C0010027B681A627B681B6A7B617B685B6858
:10311C003B617B689B69FB60FB6823F4E043FB60CD
:10312C00FB6823F44073FB603B681B681B02FA6866
:10313C001343FB607B6923F020037B613B689B6836
:10314C001B017A6913437B617B681D4A93420DD145
:10315C007B6923F080037B613B68DB681B017A6928
:10316C0013437B617B6923F040037B617B68144ACA
:10317C00934213D13B6923F480633B613B6923F495
:10318C0000633B613B685B699B003A6913433B619D
:10319C003B689B699B003A6913433B617B683A69C6
:1031AC005A607B68FA689A613B685A687B689A63D4
:1031BC007B687A691A6200BF1C37BD4680BC7047B9
:1031CC00002C014080B487B000AF786039607B6818
:1031DC001B6A23F480727B681A627B681B6A7B61B2
:1031EC007B685B683B617B68DB69FB60FB6823F099
:1031FC007003FB60FB6823F00303FB603B681B68F8
:10320C00FA681343FB607B6923F400737B613B68B2
:10321C009B681B027A6913437B617B681D4A93424E
:10322C000DD17B6923F400637B613B68DB681B0277
:10323C007A6913437B617B6923F480637B617B68D0
:10324C00144A934213D13B6923F480533B613B698D
:10325C0023F400533B613B685B691B013A691343E0
:10326C003B613B689B691B013A6913433B617B687B
:10327C003A695A607B68FA68DA613B685A687B681D
:10328C00DA637B687A691A6200BF1C37BD4680BC62
:10329C00704700BF002C014080B487B000AF78604D
:1032AC0039607B681B6A23F480527B681A627B68E6
:1032BC001B6A3B617B685B687B617B68DB69FB60DD
:1032CC00FB6823F4E043FB60FB6823F44073FB6072
:1032DC003B681B681B02FA681343FB603B6923F4D1
:1032EC0000533B613B689B681B033A6913433B618A
:1032FC007B680F4A934209D17B6923F480437B613D
:10330C003B685B699B017A6913437B617B687A69D3
:10331C005A607B68FA68DA613B685A687B681A64A1
:10332C007B683A691A6200BF1C37BD4680BC704787
:10333C00002C014080B487B000AFF860B9607A60AF
:10334C00FB681B6A7B61FB681B6A23F00102FB684C
:10335C001A62FB689B693B613B6923F0F0033B619C
:10336C007B681B013A6913433B617B6923F00A03B9
:10337C007B617A69BB6813437B61FB683A699A612C
:10338C00FB687A691A6200BF1C37BD4680BC704767
:10339C0080B487B000AFF860B9607A60FB681B6AD4
:1033AC0023F01002FB681A62FB689B697B61FB6867
:1033BC001B6A3B617B6923F470437B617B681B0355
:1033CC007A6913437B613B6923F0A0033B61BB68C3
:1033DC001B013A6913433B61FB687A699A61FB688C
:1033EC003A691A6200BF1C37BD4680BC704780B476
:1033FC0085B000AF786039607B689B68FB60FB68C8
:10340C0023F07003FB603A68FB68134343F0070337
:10341C00FB607B68FA689A6000BF1437BD4680BCBD
:10342C00704780B487B000AFF860B9607A603B60D9
:10343C00FB689B687B617B6923F47F437B613B6802
:10344C001A027B681A43BB6813437A6913437B6186
:10345C00FB687A699A6000BF1C37BD4680BC704718
:10346C0080B487B000AFF860B9607A60BB6803F0D5
:10347C001F03012202FA03F37B61FB681A6A7B6962
:10348C00DB431A40FB681A62FB681A6ABB6803F0DC
:10349C001F03796801FA03F31A43FB681A6200BF31
:1034AC001C37BD4680BC704780B485B000AF7860D7
:1034BC0039607B6893F83C30012B01D1022341E049
:1034CC007B68012283F83C207B68022283F83D2034
:1034DC007B681B685B68FB607B681B689B68BB60D8
:1034EC00FB6823F07003FB603B681B68FA681343AE
:1034FC00FB607B681B68FA685A607B681B68144A1F
:10350C00934209D07B681B68B3F1804F04D07B6871
:10351C001B68104A93420CD1BB6823F08003BB603C
:10352C003B685B68BA681343BB607B681B68BA680E
:10353C009A607B68012283F83D207B68002283F827
:10354C003C20002318461437BD4680BC704700BF92
:10355C00002C01400004004080B483B000AF7860C0
:10356C0000BF0C37BD4680BC704780B483B000AF41
:10357C00786000BF0C37BD4680BC704780B582B008
:10358C0000AF78607B68002B01D101233FE07B68A2
:10359C0093F83930DBB2002B06D17B68002283F81C
:1035AC0038207868FDF7B8FB7B68242283F8392033
:1035BC007B681B68DA687B681B6822F40052DA604F
:1035CC00786800F005F97B681B681A697B681B68D2
:1035DC0022F490421A617B681B685A697B681B68ED
:1035EC0022F02A025A617B681B68DA687B681B68C8
:1035FC0042F40052DA607B680022DA637B68202296
:10360C0083F839207B68202283F83A20002318465F
:10361C000837BD4680BD80B58AB002AFF860B9608E
:10362C003B601346FB8000237B61FB6893F83930C9
:10363C00DBB2202B7CD1BB68002B02D0FB88002B8B
:10364C0001D1012375E0FB6893F83830012B01D1CF
:10365C0002236EE0FB68012283F83820FB6800220D
:10366C00DA63FB68212283F83920FDF78DFC786141
:10367C00FB68FA889A84FB68FA88DA84FB689B6892
:10368C00B3F5805F08D1FB681B69002B04D10023C4
:10369C00FB61BB68BB6103E0BB68FB610023BB61E2
:1036AC00FB68002283F838202AE03B6800937B6992
:1036BC0000228021F86800F040F80346002B01D06E
:1036CC00032336E0FB69002B0BD1BB691B881A4620
:1036DC00FB681B68C2F308025A60BB690233BB610A
:1036EC0007E0FB691A78FB681B685A60FB690133B9
:1036FC00FB61FB68DB8C9BB2013B9AB2FB68DA8402
:10370C00FB68DB8C9BB2002BCFD13B6800937B69B1
:10371C0000224021F86800F010F80346002B01D07D
:10372C00032306E0FB68202283F83920002300E005
:10373C00022318462037BD4680BD80B584B000AF4B
:10374C00F860B9603B601346FB712CE0BB69B3F1C8
:10375C00FF3F28D0BB69002B07D0FDF715FC0246B4
:10376C003B68D31ABA699A421DD2FB681B68DA68A7
:10377C00FB681B6822F4D072DA60FB681B685A691C
:10378C00FB681B6822F001025A61FB68202283F857
:10379C003920FB68202283F83A20FB68002283F84A
:1037AC00382003230FE0FB681B681A68BB681340C2
:1037BC00BA689A420CBF01230023DBB21A46FB798C
:1037CC009A42C3D0002318461037BD4680BD000076
:1037DC0080B584B000AF78607B681B681B6923F4EC
:1037EC0040517B68DA687B681B680A431A617B6806
:1037FC009A687B681B691A437B685B691343BB60DF
:10380C007B681B68DB6823F4B05323F00C037A68E5
:10381C001268B9680B43D3607B681B685B6923F43F
:10382C0040717B689A697B681B680A435A617B68A4
:10383C001B682C4A934203D1FEF70AFEF86002E0A3
:10384C00FEF7F2FDF860FA6813469B0013449A00E9
:10385C001A447B685B689B00B2FBF3F3224AA2FB21
:10386C0003235B091901FA6813469B0013449A0061
:10387C001A447B685B689B00B2FBF3F21A4BA3FB08
:10388C0002035B09642000FB03F3D31A1B013233E0
:10389C00154AA2FB03235B0903F0F0031944FA68F1
:1038AC0013469B0013449A001A447B685B689B0088
:1038BC00B2FBF3F20C4BA3FB02035B09642000FB8D
:1038CC0003F3D31A1B013233074AA2FB03235B0910
:1038DC0003F00F027B681B680A449A6000BF103724
:1038EC00BD4680BD003801401F85EB51014B186867
:1038FC00704700BF0C00002070B500250C4E0D4C1D
:10390C00A41BA410A54209D100F034FC00250A4EDA
:10391C000A4CA41BA410A54205D170BD56F8253045
:10392C0098470135EEE756F8253098470135F2E710
:10393C0020420008204200082042000824420008CF
:10394C0003460244934200D1704703F8011BF9E788
:10395C000EB46FF0004100B59CB01DAB0290069008
:10396C00079104910848094953F8042B0591006804
:10397C0002A9019300F066F80022029B1A701CB099
:10398C005DF804EB03B070470C0000200802FFFF49
:10399C002DE9F0478E6882469E420C469046994629
:1039AC0037D88A8912F4906F31D0022325680969BF
:1039BC006F1A656905EB450595FBF3F509F10103F4
:1039CC003B449D4238BF1D46530530D5294600F077
:1039DC0037FB064650B90C234FF0FF30CAF80030C5
:1039EC00A38943F04003A381BDE8F0873A462169DF
:1039FC0000F0B6FAA38923F4906343F08003A3810B
:103A0C0026613E4426604E466561ED1BA5604E4521
:103A1C0000D94E4632464146206800F0ACFAA36805
:103A2C0000209B1BA36023681E442660DCE72A460B
:103A3C0000F060FB06460028E2D12169504600F0F8
:103A4C00B3FAC8E72DE9F04F1D468B899DB01F06D0
:103A5C0080460C4616460FD50B696BB9402100F019
:103A6C00EFFA2060206128B90C23C8F800304FF021
:103A7C00FF30C8E0402363610023099320238DF8B5
:103A8C00293030234FF0010B8DF82A30039537463F
:103A9C003D4615F8013B0BB1252B3ED1B7EB060A81
:103AAC000BD05346324621464046FFF771FF01309A
:103ABC0000F0A480099B534409933B78002B00F041
:103ACC009D8000234FF0FF32CDE90523049307932B
:103ADC008DF853301A932F46052217F8011B5048C6
:103AEC0000F030FA049BD0B9D90644BF20228DF8DF
:103AFC0053201A0744BF2B228DF853202A782A2AE8
:103B0C0015D02F4600200A25079A394611F8013B9B
:103B1C00303B092B4DD9B8B10FE02F46B8E7404ADE
:103B2C003D46801A0BFA00F018430490D3E7039A31
:103B3C00111D12680391002A01DB079204E0524226
:103B4C0043F00203079204933B782E2B0CD17B7825
:103B5C002A2B33D1039B02371A1D1B680392002BAF
:103B6C00B8BF4FF0FF3305932E4D0322397828460A
:103B7C0000F0E8F938B14023401B03FA00F0049B35
:103B8C000137034304933978062227487E1C8DF8AD
:103B9C00281000F0D7F9002838D0244B13BB039B16
:103BAC00073323F0070308330393099B4B44099312
:103BBC006DE705FB023201200F46A6E700230A251C
:103BCC00194601370593384610F8012B303A092A6B
:103BDC0003D9002BC8D00591C6E705FB01210123B1
:103BEC000746F0E703AB00932246114B04A940466D
:103BFC00AFF30080B0F1FF3F8146D6D1A3895B06BD
:103C0C003FF535AF09981DB0BDE8F08F03AB0093BD
:103C1C002246074B04A9404600F082F8EAE700BFB1
:103C2C00EC410008F2410008F641000800000000D9
:103C3C009D3900082DE9F04791461F468A680B69AB
:103C4C0006469342B8BF1346C9F8003091F843209A
:103C5C000C46DDF8208012B10133C9F8003023681E
:103C6C00990642BFD9F800300233C9F800302568F4
:103C7C0015F0060507D104F1190AE368D9F80020FC
:103C8C009B1AAB4229DC94F843302268003318BFEE
:103C9C00012392062ED404F1430239463046C04724
:103CAC00013021D02368E56803F00603042B18BF0C
:103CBC000025D9F800204FF0000908BFAD1AA36801
:103CCC00226908BF25EAE5759342C4BF9B1AED181B
:103CDC001A344D451AD1002008E0012352463946CA
:103CEC003046C047013003D14FF0FF30BDE8F087BC
:103CFC000135C2E73020E11881F843005A1C94F8D2
:103D0C0045102244023382F84310C4E701232246B3
:103D1C0039463046C0470130E6D009F10109D8E7F1
:103D2C002DE9F04301F1430C0C46097E85B06E2958
:103D3C001746064698460C9A00F0B38022D86329A1
:103D4C0036D00AD8002900F0B980582900F08380B9
:103D5C0004F1420584F8421032E0642901D069294B
:103D6C00F6D120681368050603F104012AD51B68F7
:103D7C001160002B03DA2D225B4284F843206F483C
:103D8C000A2239E0732900F09D8008D86F2920D0D1
:103D9C007029DDD1236843F02003236003E07529EB
:103DAC0017D07829D4D17823654884F8453055E06C
:103DBC00136804F14205191D1B68116084F8423028
:103DCC0001238CE01B6810F0400F116018BF1BB270
:103DDC00CFE713682568181D1060280601D51B68ED
:103DEC0002E06806FBD51B886F2914BF0A22082243
:103DFC005248002184F843106568002DA560C0F27C
:103E0C009580216821F004012160002B3DD1002D0B
:103E1C0040F08E806546082A0BD12368DB0708D555
:103E2C00236962689A42DEBF302305F8013C05F134
:103E3C00FF35ACEB05032361CDF800803B4603AAAC
:103E4C0021463046FFF7F6FE01304DD14FF0FF30E2
:103E5C0005B0BDE8F083394884F845101368216833
:103E6C001D1D1B6815600A060BD5CA0744BF41F01F
:103E7C00200121601BB9226822F02002226010224E
:103E8C00B7E74D0648BF9BB2EFE76546B3FBF2F1CF
:103E9C0002FB1133C35C05F8013D0B460029F5D13B
:103EAC00B9E713682568181D6169106028061B683E
:103EBC0001D5196002E06A06FBD51980002365461E
:103ECC002361B9E71368191D11601D686268002130
:103EDC00284600F037F808B1401B60606368236126
:103EEC00002384F84330A7E723692A463946304635
:103EFC00C0470130AAD023689B0713D4E068039B0A
:103F0C009842B8BF1846A3E701234A4639463046C3
:103F1C00C04701309AD00135E368039A9B1AAB4233
:103F2C00F2DCEBE7002504F11909F5E7002BACD125
:103F3C00037804F1420584F842306CE7FD41000837
:103F4C000E42000810B5C9B202449042034601D19A
:103F5C00002303E01C7801308C42F6D1184610BDCA
:103F6C0010B5431E0A44914200D110BD11F8014B0B
:103F7C0003F8014FF7E7884210B501EB020307D8AD
:103F8C00421E99420AD011F8014B02F8014FF8E792
:103F9C008342F5D98118D21AD34200D110BD13F83F
:103FAC00014D01F8014DF7E738B50546002943D01E
:103FBC0051F8043C0C1F002BB8BFE41800F0D0F8EB
:103FCC001E4A1368104633B9636014602846BDE876
:103FDC00384000F0C6B8A3420BD92168621893424E
:103FEC0001BF1A685B685218226063600460EDE7D9
:103FFC0013465A680AB1A242FAD919685818A04255
:10400C000BD120680144581882421960DED1106827
:10401C005268014419605A60D8E702D90C232B600E
:10402C00D4E7206821188A4201BF11685268091828
:10403C00216062605C60C9E738BD00BF9000002061
:10404C0070B5CD1C25F0030508350C2D38BF0C259B
:10405C00002D064601DBA94203D90C233360002056
:10406C0070BD00F07DF8214A1468214691B9204CAE
:10407C0023681BB9304600F063F8206029463046AF
:10408C0000F05EF8431C24D10C233046336000F062
:10409C0068F8E4E70B685B1B18D40B2B0FD90B608B
:1040AC00CC18CD50304600F05CF804F10B00231D09
:1040BC0020F00700C31AD3D05A42E250D0E74B6825
:1040CC008C4216BF636013600C46EBE70C464968E4
:1040DC00CCE7C41C24F00304A04205D0211A3046BE
:1040EC0000F02EF80130CFD02560DBE790000020E7
:1040FC0094000020F8B5074614460E4621B9BDE8D9
:10410C00F8401146FFF79CBF22B9FFF74DFF25463B
:10411C002846F8BD00F026F8A0420FD221463846BA
:10412C00FFF78EFF05460028F2D031462246FFF7F6
:10413C0017FF31463846FFF737FFE9E73546E7E723
:10414C0038B50023054C054608462360FCF762FE93
:10415C00431C02D1236803B12B6038BD54010020ED
:10416C007047704751F8043C181F002BBCBF0B580C
:10417C00C0187047F8B500BFF8BC08BC9E46704725
:0C418C00F8B500BFF8BC08BC9E467047A8
:1041980056616C6F7220646F2050574D3A20256429
:1041A800200D0A0002030405060708090A0B0C0D76
:1041B8000E0F10100102000002030405060708098B
:1041C8000A0B0C0D0E0F1010010200000000000079
:1041D80000000000010203040607080900000000AF
:1041E80001020304232D302B2000686C4C00656607
:1041F8006745464700303132333435363738394130
:104208004243444546003031323334353637383945
:08421800616263646566000049
:044220003101000860
:044224000D01000880
:104228000024F4001000000001000000100000202D
:104238000000000000000000000000000000000076
:104248000000000000000000000000000000000066
:104258000000000000000000000000000000000056
:104268000000000000000000000000000000000046
:104278000000000000000000000000000000000036
:104288000000000000000000000000000000000026
:0400000508000E9948
:00000001FF
